{
  "contractName": "AutomaticTradeContract",
  "abi": [
    {
      "anonymous": false,
      "inputs": [
        {
          "indexed": false,
          "internalType": "string",
          "name": "message",
          "type": "string"
        },
        {
          "indexed": false,
          "internalType": "uint256",
          "name": "amount",
          "type": "uint256"
        },
        {
          "indexed": false,
          "internalType": "uint256",
          "name": "offerPotatos",
          "type": "uint256"
        }
      ],
      "name": "Log",
      "type": "event"
    },
    {
      "payable": true,
      "stateMutability": "payable",
      "type": "fallback"
    },
    {
      "constant": true,
      "inputs": [],
      "name": "AddressContract",
      "outputs": [
        {
          "internalType": "address",
          "name": "",
          "type": "address"
        }
      ],
      "payable": false,
      "stateMutability": "view",
      "type": "function"
    },
    {
      "constant": true,
      "inputs": [
        {
          "internalType": "address",
          "name": "",
          "type": "address"
        }
      ],
      "name": "Offers",
      "outputs": [
        {
          "internalType": "uint256",
          "name": "amount",
          "type": "uint256"
        },
        {
          "internalType": "uint256",
          "name": "offerPotatos",
          "type": "uint256"
        }
      ],
      "payable": false,
      "stateMutability": "view",
      "type": "function"
    },
    {
      "constant": false,
      "inputs": [
        {
          "internalType": "uint256",
          "name": "amount",
          "type": "uint256"
        },
        {
          "internalType": "uint256",
          "name": "offerPotatos",
          "type": "uint256"
        }
      ],
      "name": "TradeOffer",
      "outputs": [],
      "payable": false,
      "stateMutability": "nonpayable",
      "type": "function"
    },
    {
      "constant": true,
      "inputs": [],
      "name": "ContractBalance",
      "outputs": [
        {
          "internalType": "uint256",
          "name": "",
          "type": "uint256"
        }
      ],
      "payable": false,
      "stateMutability": "view",
      "type": "function"
    },
    {
      "constant": false,
      "inputs": [
        {
          "internalType": "address payable",
          "name": "to",
          "type": "address"
        }
      ],
      "name": "Transfer",
      "outputs": [],
      "payable": false,
      "stateMutability": "nonpayable",
      "type": "function"
    }
  ],
  "bytecode": "0x608060405234801561001057600080fd5b506103db806100206000396000f3fe60806040526004361061004a5760003560e01c80630a22b1341461004c5780630ffbb538146100a35780632d339b1e1461010f5780633b66805914610160578063cd300bc01461018b575b005b34801561005857600080fd5b506100616101d0565b604051808273ffffffffffffffffffffffffffffffffffffffff1673ffffffffffffffffffffffffffffffffffffffff16815260200191505060405180910390f35b3480156100af57600080fd5b506100f2600480360360208110156100c657600080fd5b81019080803573ffffffffffffffffffffffffffffffffffffffff1690602001909291905050506101f5565b604051808381526020018281526020019250505060405180910390f35b34801561011b57600080fd5b5061015e6004803603602081101561013257600080fd5b81019080803573ffffffffffffffffffffffffffffffffffffffff169060200190929190505050610219565b005b34801561016c57600080fd5b50610175610264565b6040518082815260200191505060405180910390f35b34801561019757600080fd5b506101ce600480360360408110156101ae57600080fd5b81019080803590602001909291908035906020019092919050505061029c565b005b6000809054906101000a900473ffffffffffffffffffffffffffffffffffffffff1681565b60016020528060005260406000206000915090508060000154908060010154905082565b8073ffffffffffffffffffffffffffffffffffffffff166108fc60059081150290604051600060405180830381858888f19350505050158015610260573d6000803e3d6000fd5b5050565b60008061026f610264565b90506000811161027e57600080fd5b3073ffffffffffffffffffffffffffffffffffffffff163191505090565b81600160003373ffffffffffffffffffffffffffffffffffffffff1673ffffffffffffffffffffffffffffffffffffffff1681526020019081526020016000206000018190555080600160003373ffffffffffffffffffffffffffffffffffffffff1673ffffffffffffffffffffffffffffffffffffffff168152602001908152602001600020600101819055507fc72c11333761a47423f2cbe54eda92b59b0b5977a444194492fe47f41b3c0ab4828260405180806020018481526020018381526020018281038252600f8152602001807f54726164652061677265656d616e740000000000000000000000000000000000815250602001935050505060405180910390a1505056fea265627a7a723158202213689e7b808d8eac8d92928e4b6d1f25c0e6e326065d6006e136b3189ccd4b64736f6c634300050c0032",
  "source": "pragma solidity ^0.5.12;\r\n\r\ncontract AutomaticTradeContract {\r\n  \r\n  address public AddressContract;\r\n  \r\n  event Log(string message, uint amount, uint offerPotatos);\r\n  \r\n  struct OfferInfo {uint amount; uint offerPotatos;}\r\n  \r\n  mapping (address => OfferInfo) public Offers;\r\n  \r\n  function () external payable {\r\n  }\r\n  \r\n  function TradeOffer(uint amount, uint offerPotatos) public {\r\n    Offers[msg.sender].amount = amount;\r\n    Offers[msg.sender].offerPotatos = offerPotatos;\r\n    emit Log(\"Trade agreemant\", amount, offerPotatos);\r\n  }\r\n  \r\n  function ContractBalance() public view returns (uint) { \r\n      uint balance = ContractBalance();\r\n      require (balance > 0);\r\n      return address(this).balance;\r\n  }\r\n  \r\n  function Transfer(address payable to) public { \r\n      to.transfer(5 wei);\r\n  }\r\n}\r\n",
  "sourcePath": "C:/Users/Kees/Desktop/Dapps_Github/BC1_Kees/Day_07_Mon_9_12_2019/testen/contracts/AutomaticTradeContract.sol",
  "compiler": {
    "name": "solc",
    "version": "0.5.12+commit.7709ece9.Emscripten.clang"
  },
  "schemaVersion": "3.0.19",
  "updatedAt": "2019-12-09T11:03:33.039Z",
  "networkType": "ethereum",
  "devdoc": {
    "methods": {}
  },
  "userdoc": {
    "methods": {}
  }
}