{
  "contractName": "AutomaticTradeContract",
  "abi": [
    {
      "inputs": [],
      "payable": true,
      "stateMutability": "payable",
      "type": "constructor"
    },
    {
      "anonymous": false,
      "inputs": [
        {
          "indexed": false,
          "internalType": "string",
          "name": "message",
          "type": "string"
        },
        {
          "indexed": false,
          "internalType": "uint256",
          "name": "amount",
          "type": "uint256"
        },
        {
          "indexed": false,
          "internalType": "uint256",
          "name": "offerPotatos",
          "type": "uint256"
        }
      ],
      "name": "Log",
      "type": "event"
    },
    {
      "payable": true,
      "stateMutability": "payable",
      "type": "fallback"
    },
    {
      "constant": true,
      "inputs": [
        {
          "internalType": "address",
          "name": "",
          "type": "address"
        }
      ],
      "name": "Offers",
      "outputs": [
        {
          "internalType": "uint256",
          "name": "amount",
          "type": "uint256"
        },
        {
          "internalType": "uint256",
          "name": "offerPotatos",
          "type": "uint256"
        }
      ],
      "payable": false,
      "stateMutability": "view",
      "type": "function"
    },
    {
      "constant": true,
      "inputs": [],
      "name": "alarm",
      "outputs": [
        {
          "internalType": "string",
          "name": "",
          "type": "string"
        }
      ],
      "payable": false,
      "stateMutability": "view",
      "type": "function"
    },
    {
      "constant": true,
      "inputs": [],
      "name": "priceOfUrl",
      "outputs": [
        {
          "internalType": "uint256",
          "name": "",
          "type": "uint256"
        }
      ],
      "payable": false,
      "stateMutability": "view",
      "type": "function"
    },
    {
      "constant": false,
      "inputs": [
        {
          "internalType": "bytes32",
          "name": "myid",
          "type": "bytes32"
        },
        {
          "internalType": "string",
          "name": "result",
          "type": "string"
        }
      ],
      "name": "__callback",
      "outputs": [],
      "payable": false,
      "stateMutability": "nonpayable",
      "type": "function"
    },
    {
      "constant": false,
      "inputs": [
        {
          "internalType": "bytes32",
          "name": "_myid",
          "type": "bytes32"
        },
        {
          "internalType": "string",
          "name": "_result",
          "type": "string"
        },
        {
          "internalType": "bytes",
          "name": "_proof",
          "type": "bytes"
        }
      ],
      "name": "__callback",
      "outputs": [],
      "payable": false,
      "stateMutability": "nonpayable",
      "type": "function"
    },
    {
      "constant": false,
      "inputs": [],
      "name": "GetAlarm",
      "outputs": [],
      "payable": true,
      "stateMutability": "payable",
      "type": "function"
    },
    {
      "constant": false,
      "inputs": [
        {
          "internalType": "uint256",
          "name": "amount",
          "type": "uint256"
        },
        {
          "internalType": "uint256",
          "name": "offerPotatos",
          "type": "uint256"
        }
      ],
      "name": "TradeOffer",
      "outputs": [],
      "payable": false,
      "stateMutability": "nonpayable",
      "type": "function"
    },
    {
      "constant": true,
      "inputs": [],
      "name": "ContractBalance",
      "outputs": [
        {
          "internalType": "uint256",
          "name": "",
          "type": "uint256"
        }
      ],
      "payable": false,
      "stateMutability": "view",
      "type": "function"
    },
    {
      "constant": false,
      "inputs": [
        {
          "internalType": "address payable",
          "name": "to",
          "type": "address"
        }
      ],
      "name": "Transfer",
      "outputs": [],
      "payable": false,
      "stateMutability": "nonpayable",
      "type": "function"
    }
  ],
  "bytecode": "0x6080604052611b7d806100136000396000f3fe6080604052600436106100865760003560e01c80633b668059116100595780633b6680591461038057806343d3b1be146103ab578063465c4161146103d6578063bb7e8c28146103e0578063cd300bc01461047057610086565b80630ffbb5381461008857806327dc297e146100f45780632d339b1e146101c657806338bbfa5014610217575b005b34801561009457600080fd5b506100d7600480360360208110156100ab57600080fd5b81019080803573ffffffffffffffffffffffffffffffffffffffff1690602001909291905050506104b5565b604051808381526020018281526020019250505060405180910390f35b34801561010057600080fd5b506101c46004803603604081101561011757600080fd5b81019080803590602001909291908035906020019064010000000081111561013e57600080fd5b82018360208201111561015057600080fd5b8035906020019184600183028401116401000000008311171561017257600080fd5b91908080601f016020809104026020016040519081016040528093929190818152602001838380828437600081840152601f19601f8201169050808301925050505050505091929192905050506104d9565b005b3480156101d257600080fd5b50610215600480360360208110156101e957600080fd5b81019080803573ffffffffffffffffffffffffffffffffffffffff169060200190929190505050610533565b005b34801561022357600080fd5b5061037e6004803603606081101561023a57600080fd5b81019080803590602001909291908035906020019064010000000081111561026157600080fd5b82018360208201111561027357600080fd5b8035906020019184600183028401116401000000008311171561029557600080fd5b91908080601f016020809104026020016040519081016040528093929190818152602001838380828437600081840152601f19601f820116905080830192505050505050509192919290803590602001906401000000008111156102f857600080fd5b82018360208201111561030a57600080fd5b8035906020019184600183028401116401000000008311171561032c57600080fd5b91908080601f016020809104026020016040519081016040528093929190818152602001838380828437600081840152601f19601f82011690508083019250505050505050919291929050505061057e565b005b34801561038c57600080fd5b506103956105a1565b6040518082815260200191505060405180910390f35b3480156103b757600080fd5b506103c06105d9565b6040518082815260200191505060405180910390f35b6103de6105df565b005b3480156103ec57600080fd5b506103f56106ef565b6040518080602001828103825283818151815260200191508051906020019080838360005b8381101561043557808201518184015260208101905061041a565b50505050905090810190601f1680156104625780820380516001836020036101000a031916815260200191505b509250505060405180910390f35b34801561047c57600080fd5b506104b36004803603604081101561049357600080fd5b81019080803590602001909291908035906020019092919050505061078d565b005b60076020528060005260406000206000915090508060000154908060010154905082565b6104e1610897565b73ffffffffffffffffffffffffffffffffffffffff163373ffffffffffffffffffffffffffffffffffffffff161461051857600080fd5b806005908051906020019061052e929190611a18565b505050565b8073ffffffffffffffffffffffffffffffffffffffff166108fc60059081150290604051600060405180830381858888f1935050505015801561057a573d6000803e3d6000fd5b5050565b6000801b600360008060001b815260200190815260200160002081905550505050565b6000806105ac6105a1565b9050600081116105bb57600080fd5b3073ffffffffffffffffffffffffffffffffffffffff163191505090565b60065481565b61061d6040518060400160405280600381526020017f55524c0000000000000000000000000000000000000000000000000000000000815250610bb4565b6006819055506006543073ffffffffffffffffffffffffffffffffffffffff16311015610695576040517f08c379a000000000000000000000000000000000000000000000000000000000815260040180806020018281038252602e815260200180611abe602e913960400191505060405180910390fd5b6106ec6040518060400160405280600381526020017f55524c00000000000000000000000000000000000000000000000000000000008152506040518060800160405280605d8152602001611aec605d9139610f45565b50565b60058054600181600116156101000203166002900480601f0160208091040260200160405190810160405280929190818152602001828054600181600116156101000203166002900480156107855780601f1061075a57610100808354040283529160200191610785565b820191906000526020600020905b81548152906001019060200180831161076857829003601f168201915b505050505081565b81600760003373ffffffffffffffffffffffffffffffffffffffff1673ffffffffffffffffffffffffffffffffffffffff1681526020019081526020016000206000018190555080600760003373ffffffffffffffffffffffffffffffffffffffff1673ffffffffffffffffffffffffffffffffffffffff168152602001908152602001600020600101819055507fc72c11333761a47423f2cbe54eda92b59b0b5977a444194492fe47f41b3c0ab4828260405180806020018481526020018381526020018281038252600f8152602001807f54726164652061677265656d616e740000000000000000000000000000000000815250602001935050505060405180910390a15050565b60008073ffffffffffffffffffffffffffffffffffffffff16600160009054906101000a900473ffffffffffffffffffffffffffffffffffffffff1673ffffffffffffffffffffffffffffffffffffffff16148061091f5750600061091d600160009054906101000a900473ffffffffffffffffffffffffffffffffffffffff1661148b565b145b156109305761092e6000611496565b505b600160009054906101000a900473ffffffffffffffffffffffffffffffffffffffff1673ffffffffffffffffffffffffffffffffffffffff166338cc48316040518163ffffffff1660e01b8152600401602060405180830381600087803b15801561099a57600080fd5b505af11580156109ae573d6000803e3d6000fd5b505050506040513d60208110156109c457600080fd5b810190808051906020019092919050505073ffffffffffffffffffffffffffffffffffffffff166000809054906101000a900473ffffffffffffffffffffffffffffffffffffffff1673ffffffffffffffffffffffffffffffffffffffff1614610b0d57600160009054906101000a900473ffffffffffffffffffffffffffffffffffffffff1673ffffffffffffffffffffffffffffffffffffffff166338cc48316040518163ffffffff1660e01b8152600401602060405180830381600087803b158015610a9257600080fd5b505af1158015610aa6573d6000803e3d6000fd5b505050506040513d6020811015610abc57600080fd5b81019080805190602001909291905050506000806101000a81548173ffffffffffffffffffffffffffffffffffffffff021916908373ffffffffffffffffffffffffffffffffffffffff1602179055505b6000809054906101000a900473ffffffffffffffffffffffffffffffffffffffff1673ffffffffffffffffffffffffffffffffffffffff1663c281d19e6040518163ffffffff1660e01b815260040160206040518083038186803b158015610b7457600080fd5b505afa158015610b88573d6000803e3d6000fd5b505050506040513d6020811015610b9e57600080fd5b8101908080519060200190929190505050905090565b60008073ffffffffffffffffffffffffffffffffffffffff16600160009054906101000a900473ffffffffffffffffffffffffffffffffffffffff1673ffffffffffffffffffffffffffffffffffffffff161480610c3c57506000610c3a600160009054906101000a900473ffffffffffffffffffffffffffffffffffffffff1661148b565b145b15610c4d57610c4b6000611496565b505b600160009054906101000a900473ffffffffffffffffffffffffffffffffffffffff1673ffffffffffffffffffffffffffffffffffffffff166338cc48316040518163ffffffff1660e01b8152600401602060405180830381600087803b158015610cb757600080fd5b505af1158015610ccb573d6000803e3d6000fd5b505050506040513d6020811015610ce157600080fd5b810190808051906020019092919050505073ffffffffffffffffffffffffffffffffffffffff166000809054906101000a900473ffffffffffffffffffffffffffffffffffffffff1673ffffffffffffffffffffffffffffffffffffffff1614610e2a57600160009054906101000a900473ffffffffffffffffffffffffffffffffffffffff1673ffffffffffffffffffffffffffffffffffffffff166338cc48316040518163ffffffff1660e01b8152600401602060405180830381600087803b158015610daf57600080fd5b505af1158015610dc3573d6000803e3d6000fd5b505050506040513d6020811015610dd957600080fd5b81019080805190602001909291905050506000806101000a81548173ffffffffffffffffffffffffffffffffffffffff021916908373ffffffffffffffffffffffffffffffffffffffff1602179055505b6000809054906101000a900473ffffffffffffffffffffffffffffffffffffffff1673ffffffffffffffffffffffffffffffffffffffff1663524f3889836040518263ffffffff1660e01b81526004018080602001828103825283818151815260200191508051906020019080838360005b83811015610eb7578082015181840152602081019050610e9c565b50505050905090810190601f168015610ee45780820380516001836020036101000a031916815260200191505b5092505050602060405180830381600087803b158015610f0357600080fd5b505af1158015610f17573d6000803e3d6000fd5b505050506040513d6020811015610f2d57600080fd5b81019080805190602001909291905050509050919050565b60008073ffffffffffffffffffffffffffffffffffffffff16600160009054906101000a900473ffffffffffffffffffffffffffffffffffffffff1673ffffffffffffffffffffffffffffffffffffffff161480610fcd57506000610fcb600160009054906101000a900473ffffffffffffffffffffffffffffffffffffffff1661148b565b145b15610fde57610fdc6000611496565b505b600160009054906101000a900473ffffffffffffffffffffffffffffffffffffffff1673ffffffffffffffffffffffffffffffffffffffff166338cc48316040518163ffffffff1660e01b8152600401602060405180830381600087803b15801561104857600080fd5b505af115801561105c573d6000803e3d6000fd5b505050506040513d602081101561107257600080fd5b810190808051906020019092919050505073ffffffffffffffffffffffffffffffffffffffff166000809054906101000a900473ffffffffffffffffffffffffffffffffffffffff1673ffffffffffffffffffffffffffffffffffffffff16146111bb57600160009054906101000a900473ffffffffffffffffffffffffffffffffffffffff1673ffffffffffffffffffffffffffffffffffffffff166338cc48316040518163ffffffff1660e01b8152600401602060405180830381600087803b15801561114057600080fd5b505af1158015611154573d6000803e3d6000fd5b505050506040513d602081101561116a57600080fd5b81019080805190602001909291905050506000806101000a81548173ffffffffffffffffffffffffffffffffffffffff021916908373ffffffffffffffffffffffffffffffffffffffff1602179055505b60008060009054906101000a900473ffffffffffffffffffffffffffffffffffffffff1673ffffffffffffffffffffffffffffffffffffffff1663524f3889856040518263ffffffff1660e01b81526004018080602001828103825283818151815260200191508051906020019080838360005b8381101561124a57808201518184015260208101905061122f565b50505050905090810190601f1680156112775780820380516001836020036101000a031916815260200191505b5092505050602060405180830381600087803b15801561129657600080fd5b505af11580156112aa573d6000803e3d6000fd5b505050506040513d60208110156112c057600080fd5b8101908080519060200190929190505050905062030d403a02670de0b6b3a7640000018111156112f6576000801b915050611485565b6000809054906101000a900473ffffffffffffffffffffffffffffffffffffffff1673ffffffffffffffffffffffffffffffffffffffff1663adf59f9982600087876040518563ffffffff1660e01b8152600401808481526020018060200180602001838103835285818151815260200191508051906020019080838360005b83811015611391578082015181840152602081019050611376565b50505050905090810190601f1680156113be5780820380516001836020036101000a031916815260200191505b50838103825284818151815260200191508051906020019080838360005b838110156113f75780820151818401526020810190506113dc565b50505050905090810190601f1680156114245780820380516001836020036101000a031916815260200191505b50955050505050506020604051808303818588803b15801561144557600080fd5b505af1158015611459573d6000803e3d6000fd5b50505050506040513d602081101561147057600080fd5b81019080805190602001909291905050509150505b92915050565b6000813b9050919050565b60006114a06114a7565b9050919050565b6000806114c7731d3b2638a7cc9f2cb3d298a3da7a90b67e5506ed61148b565b111561156957731d3b2638a7cc9f2cb3d298a3da7a90b67e5506ed600160006101000a81548173ffffffffffffffffffffffffffffffffffffffff021916908373ffffffffffffffffffffffffffffffffffffffff1602179055506115606040518060400160405280600b81526020017f6574685f6d61696e6e65740000000000000000000000000000000000000000008152506119fe565b600190506119fb565b600061158873c03a2615d5efaf5f49f60b7bb6583eaec212fdf161148b565b111561162a5773c03a2615d5efaf5f49f60b7bb6583eaec212fdf1600160006101000a81548173ffffffffffffffffffffffffffffffffffffffff021916908373ffffffffffffffffffffffffffffffffffffffff1602179055506116216040518060400160405280600c81526020017f6574685f726f707374656e3300000000000000000000000000000000000000008152506119fe565b600190506119fb565b600061164973b7a07bcf2ba2f2703b24c0691b5278999c59ac7e61148b565b11156116eb5773b7a07bcf2ba2f2703b24c0691b5278999c59ac7e600160006101000a81548173ffffffffffffffffffffffffffffffffffffffff021916908373ffffffffffffffffffffffffffffffffffffffff1602179055506116e26040518060400160405280600981526020017f6574685f6b6f76616e00000000000000000000000000000000000000000000008152506119fe565b600190506119fb565b600061170a73146500cfd35b22e4a392fe0adc06de1a1368ed4861148b565b11156117ac5773146500cfd35b22e4a392fe0adc06de1a1368ed48600160006101000a81548173ffffffffffffffffffffffffffffffffffffffff021916908373ffffffffffffffffffffffffffffffffffffffff1602179055506117a36040518060400160405280600b81526020017f6574685f72696e6b6562790000000000000000000000000000000000000000008152506119fe565b600190506119fb565b60006117cb73a2998efd205fb9d4b4963afb70778d6354ad3a4161148b565b111561186d5773a2998efd205fb9d4b4963afb70778d6354ad3a41600160006101000a81548173ffffffffffffffffffffffffffffffffffffffff021916908373ffffffffffffffffffffffffffffffffffffffff1602179055506118646040518060400160405280600a81526020017f6574685f676f65726c69000000000000000000000000000000000000000000008152506119fe565b600190506119fb565b600061188c736f485c8bf6fc43ea212e93bbf8ce046c7f1cb47561148b565b11156118f057736f485c8bf6fc43ea212e93bbf8ce046c7f1cb475600160006101000a81548173ffffffffffffffffffffffffffffffffffffffff021916908373ffffffffffffffffffffffffffffffffffffffff160217905550600190506119fb565b600061190f7320e12a1f859b3feae5fb2a0a32c18f5a65555bbf61148b565b1115611973577320e12a1f859b3feae5fb2a0a32c18f5a65555bbf600160006101000a81548173ffffffffffffffffffffffffffffffffffffffff021916908373ffffffffffffffffffffffffffffffffffffffff160217905550600190506119fb565b60006119927351efaf4c8b3c9afbd5ab9f4bbc82784ab6ef8faa61148b565b11156119f6577351efaf4c8b3c9afbd5ab9f4bbc82784ab6ef8faa600160006101000a81548173ffffffffffffffffffffffffffffffffffffffff021916908373ffffffffffffffffffffffffffffffffffffffff160217905550600190506119fb565b600090505b90565b8060029080519060200190611a14929190611a18565b5050565b828054600181600116156101000203166002900490600052602060002090601f016020900481019282601f10611a5957805160ff1916838001178555611a87565b82800160010185558215611a87579182015b82811115611a86578251825591602001919060010190611a6b565b5b509050611a949190611a98565b5090565b611aba91905b80821115611ab6576000816000905550600101611a9e565b5090565b9056fe706c656173652061646420736f6d652045544820746f20636f76657220666f7220746865207175657279206665656a736f6e28687474703a2f2f776565726c6976652e6e6c2f6170692f6a736f6e2d646174612d31306d696e2e7068703f6b65793d64656d6f266c6f63617469653d416d7374657264616d292e6c697665776565725b305d2e616c61726da265627a7a723158201bd1d142bb0d7dd29694ca11576384f21e8523487cccf97cd71980d79f68bedf64736f6c634300050c0032",
  "source": "pragma solidity ^0.5.12;\r\n\r\nimport \"./provableAPI.sol\";\r\n\r\ncontract AutomaticTradeContract is usingProvable {\r\n   string  public alarm;\r\n   uint256 public priceOfUrl;\r\n   constructor() public payable {}\r\n\r\n   function __callback(bytes32 myid, string memory result ) public {\r\n       if (msg.sender != provable_cbAddress()) revert();\r\n       alarm = result;\r\n   }\r\n\r\n   function GetAlarm() public payable {\r\n       priceOfUrl = provable_getPrice(\"URL\");\r\n       require (address(this).balance >= priceOfUrl,\r\n            \"please add some ETH to cover for the query fee\");\r\n       provable_query(\"URL\", \r\n            \"json(http://weerlive.nl/api/json-data-10min.php?key=demo&locatie=Amsterdam).liveweer[0].alarm\");\r\n   }\r\n\r\n\r\n  \r\n  event Log(string message, uint amount, uint offerPotatos);\r\n  \r\n  struct OfferInfo {uint amount; uint offerPotatos;}\r\n  \r\n  mapping (address => OfferInfo) public Offers;\r\n  \r\n  function () external payable {\r\n  }\r\n  \r\n  function TradeOffer(uint amount, uint offerPotatos) public {\r\n    Offers[msg.sender].amount = amount;\r\n    Offers[msg.sender].offerPotatos = offerPotatos;\r\n    emit Log(\"Trade agreemant\", amount, offerPotatos);\r\n  }\r\n  \r\n  function ContractBalance() public view returns (uint) { \r\n      uint balance = ContractBalance();\r\n      require (balance > 0);\r\n      return address(this).balance;\r\n  }\r\n  \r\n  function Transfer(address payable to) public { \r\n      to.transfer(5 wei);\r\n  }\r\n}\r\n",
  "sourcePath": "C:/Users/Kees/Desktop/Dapps_Github/BC1_Kees/Day_07_Mon_9_12_2019/testen/contracts/AutomaticTradeContract.sol",
  "compiler": {
    "name": "solc",
    "version": "0.5.12+commit.7709ece9.Emscripten.clang"
  },
  "schemaVersion": "3.0.19",
  "updatedAt": "2019-12-09T13:20:53.346Z",
  "networkType": "ethereum",
  "devdoc": {
    "methods": {}
  },
  "userdoc": {
    "methods": {}
  }
}